:020000040800F2
:10000000D80F0020450200085D06000855060008CC
:1000100059060008F30500089D07000800000000CD
:100020000000000000000000000000002907000898
:10003000F7050008000000005F0600085D020008E8
:100040005F0200085F0200085F0200085F0200080C
:100050005F0200085F020008F90500085F0200085F
:100060005F0200085F0200085F0200085F020008EC
:100070005F0200085F0200085F0200085F020008DC
:100080005F0200085F0200085F0200085F020008CC
:100090005F0200085F0200085F0200085F020008BC
:1000A0005F0200085F0200085F0200085F020008AC
:1000B0005F0200085F0200085F0200085F0200089C
:1000C0005F0200085F0200085F0200085F0200088C
:1000D0005F0200085F0200085F0200085F0200087C
:1000E000150600085F0200085F0200085F020008B2
:1000F0005F0200085F0200085F0200085F0200085C
:100100005F0200085F0200085F0200085F0200084B
:100110005F0200085F0200085F0200085F0200083B
:100120005F0200085F0200085F0200085F0200082B
:100130005F0200085F0200085F0200085F0200081B
:1001400000000000000000000000000000000000AF
:100150005F0200085F0200085F0200085F020008FB
:100160005F0200085F0200085F0200085F020008EB
:100170005F0200085F0200085F0200085F020008DB
:100180005F02000800F002F800F04CF80AA090E8C6
:10019000000C82448344AAF10107DA4501D100F042
:1001A00041F8AFF2090EBAE80F0013F0010F18BFC3
:1001B000FB1A43F0010318474421000064210000AA
:1001C0000A4410F8014B14F00F0508BF10F8015B4A
:1001D000240908BF10F8014B6D1E05D010F8013B33
:1001E0006D1E01F8013BF9D1641E03D0641E01F8B5
:1001F000015BFBD19142E4D370470000002300244F
:1002000000250026103A28BF78C1FBD8520728BF26
:1002100030C148BF0B6070471FB502F05FF81FBDCB
:1002200010B510BD00F07CF91146FFF7F5FF00F0A6
:1002300099FE00F09AF903B4FFF7F2FF03BC00F057
:1002400061F900000948804709480047FEE7FEE7DA
:10025000FEE7FEE7FEE7FEE7FEE7FEE7FEE7FEE776
:1002600004480549054A064B704700002D07000861
:1002700085010008D8090020D80F0020D80B0020E5
:10028000D80B00200EB5054614460E4613A000F00C
:10029000F6F8284600F0F3F816A000F0F0F8304623
:1002A00000F0EDF815A000F0EAF800218DF80B1031
:1002B0000A210DF10A008DF80A1008E094FBF1F212
:1002C00001FB124294FBF1F4303200F8012D002CB6
:1002D000F4DC00F0D4F800F0C7F800002A2A2A2045
:1002E000617373657274696F6E206661696C6564B1
:1002F0003A2000002C2066696C6520002C206C6977
:100300006E65200010B5431C02E010F8011B71B1AE
:100310008107FAD14FF0013202C88C1A8C4314EADB
:10032000C211F9D0C01A0A0603D0C01E10BDC01AEF
:1003300010BD0A0401D0801E10BD0902FCD0401E71
:1003400010BD40EA010370B59B072ED14FF0013676
:10035000042A2AD308C810C99D1B9D43121F15EA01
:10036000C61517D0D8B2E1B2401A50EA056110D1D3
:1003700098B2A1B2401A50EA05410AD123F07F4059
:1003800024F07F41401A50EA052102D1180EA0EB5B
:10039000146070BDA342DBD018BA21BA884201D9DB
:1003A000012070BD4FF0FF3070BD0AB9002070BD54
:1003B00010F8013B11F8014B63B1A3420AD1521E60
:1003C00008D010F8013B11F8014B1BB1A34201D139
:1003D000521EEDD1181B70BD032A40F2308010F080
:1003E000030C00F0158011F8013BBCF1020F6244D0
:1003F00098BF11F801CB00F8013B38BF11F8013B61
:10040000A2F1040298BF00F801CB38BF00F8013B0D
:1004100011F0030300F03D80083AC0F0088051F865
:10042000043B083A51F804CBA0E80810F5E7121D88
:100430005CBF51F8043B40F8043BAFF30080D207A7
:1004400024BF11F8013B11F801CB48BF11F8012B73
:1004500024BF00F8013B00F801CB48BF00F8012B96
:10046000704770477047704710B5002000F050F893
:10047000FFF7D6FEBDE81040012000F043B810B5EC
:10048000044602E0641C00F036F820780028F9D118
:1004900010BD10B5203AC0F00B80B1E81850203ADA
:1004A000A0E81850B1E81850A0E81850BFF4F5AF14
:1004B0005FEA027C24BFB1E81850A0E8185044BF9E
:1004C00018C918C0BDE810405FEA827C24BF51F80B
:1004D000043B40F8043B08BF7047D20728BF31F8FF
:1004E000023B48BF11F8012B28BF20F8023B48BF50
:1004F00000F8012B704708B569468DF8000003200D
:10050000ABBE08BD01491820ABBEFEE726000200C5
:1005100010B500F039F8BDE8104000F02FB8704772
:10052000754600F049F8AE4605006946534620F08E
:100530000700854618B020B5FFF792FEBDE82040C1
:100540004FF000064FF000074FF000084FF0000B8F
:1005500021F00701AC46ACE8C009ACE8C009ACE842
:10056000C009ACE8C0098D46704710B50446AFF32A
:1005700000802046BDE81040FFF75DBE002801D096
:10058000FFF7C0BF7047000010B5002102A000F0C7
:1005900017F8012010BD0000534947414252543A18
:1005A0002041626E6F726D616C207465726D696E50
:1005B0006174696F6E000000004870477409002084
:1005C00070B505460C460A2000E06D1CFFF793FF4E
:1005D00035B128780028F8D102E0641CFFF78BFFC2
:1005E00014B120780028F8D1BDE870400A20FFF748
:1005F00082BF00BFFEE7704710B5012000F016FB78
:1006000020B101200249087000F000FB10BD00007D
:10061000E803002010B54FF4806000F007FB98B1AC
:10062000282000F0D9FD012008490870084800780A
:10063000401C074908704FF4806000F0E7FA002280
:100640000121282000F0DEFD10BD0000EE03002097
:10065000EA03002000BFFEE700BFFEE770477047D7
:1006600010B51949C87800F035F81749887800F0B6
:1006700031F81549487800F02DF81349087800F052
:1006800029F8C02000F026F8002000F023F80E49D9
:10069000487900F01FF80C49087900F01BF80A4867
:1006A00000790949497940EA012008490880002475
:1006B00005E0002000F00EF805490855641C0348C9
:1006C00000888442F5DB10BD48080020EC030020C0
:1006D000AC08002070B5044600BF0221104801F0AC
:1006E000CCF80028F9D000224FF480510D4800F0DA
:1006F00059FB21460A4801F0BEF800BF0121084815
:1007000001F0BBF80028F9D0054801F0B0F8C5B2F7
:1007100001221103034800F045FB284670BD00008C
:1007200000380040000C0140704700001848006885
:1007300040F47000164908601648006820F0010077
:10074000401C1449086000BF12480068C0F3400014
:100750000028F9D00F48406820F003000D49486098
:1007600000BF0C484068C0F381000028F9D1094857
:10077000006809490840074908600020486008638C
:100780004FF41F008860C803014980390860704732
:1007900088ED00E000100240FFFFF2FE00BFFEE720
:1007A0002DE9F04107463846FFF7ACFDC4B204F02E
:1007B0000305A0461DB1C5F104002044C4B2502079
:1007C000FFF788FF0820FFF785FF0220FFF782FF71
:1007D0006020FFF77FFF8020FFF77CFF0020FFF7FE
:1007E00079FF0020FFF776FFE0B2FFF773FF0026E6
:1007F00003E0B85DFFF76EFF761C4645F9DB002687
:1008000003E00020FFF766FF761CC5F10400B0424C
:10081000F7DCBDE8F081000010B5322000F080F96F
:10082000012204210A4800F0BDFA01F09DFA00F00F
:1008300087FE002000F0C0FE044640F6127103203F
:1008400001F002FD4FF4A261022001F0FDFC10BD99
:10085000000801402DE9F04705460E4617460220E4
:1008600000F06CFAC0F30030304400F0FF0900F0F3
:100870008BFA804619FB08F000F0FF0A002411E013
:1008800035F8140001F08CFA014604FB08F03954E5
:1008900035F8140000F062FB014604FB08F0401C30
:1008A0003954641CB442EBDB5046BDE8F087024685
:1008B00041EA0220704700000349496860F30711CC
:1008C000014A516070470000001002400349496826
:1008D00060F30A21014A5160704700000010024095
:1008E0000349496860F3CD21014A51607047000017
:1008F00000100240012807D10749496D21F030015D
:100900003031054A516505E00349496D21F0300158
:10091000014A51657047000000100240052827D2A7
:10092000DFE800F0030A11181F00134A126861F390
:100930000002114B1A601CE00F4A126861F310426A
:100940000D4B1A6015E00C4A126861F318620A4BED
:100950001A600EE0084A126A61F30002064B1A623E
:1009600007E0054A526A61F30002034B5A6200E055
:1009700000BF00BF704700000010024010B50146E4
:100980000020094B03EB1142126801F01F04012300
:10099000A3401A4001F01F040123A3409A4200D053
:1009A00000E0012010BD00000010024010B5012938
:1009B0000DD10E4B03EB1042126800F01F0401230F
:1009C000A3401A43094C04EB10431A600CE0074B98
:1009D00003EB1042126800F01F040123A3409A4366
:1009E000024C04EB10431A6010BD000000100240DE
:1009F00010B568B91C4B5B6823F480331A4C6360F4
:100A000023461B6B23F0007303F10073236317E08D
:100A1000154B5B6823F4803303F58033124C63601D
:100A2000012805D123465B6823F40033636007E0A7
:100A30000D4B5B6823F4003303F500330A4C63600D
:100A4000094B5B6861F39543074C63600C09064BE7
:100A50005B6864F35E73044C636023465B6862F317
:100A6000DF73636010BD000000100240134800688F
:100A700020F00100401C1149086000BF0F480068C9
:100A8000C0F340000028F9D00C48406820F0030073
:100A90000A49486000BF09484068C0F38100002847
:100AA000F9D106480068064908400449086000205A
:100AB000486008634FF41F008860704700100240D0
:100AC000FFFFF2FE0349496860F30101014A5160EA
:100AD000704700000010024002484068C0F38100E7
:100AE000704700000010024010B5042000F0DCFF49
:100AF000074800680749B0FBF1F00749086008465D
:100B000000684FF47A7148430449086010BD000042
:100B1000F003002040420F00E0030020E403002027
:100B2000002131E032280ADD194A126832235A4383
:100B30004FF0E0235A61A0F1320290B206E0144A6D
:100B4000126842434FF0E0235A61002000224FF028
:100B5000E0239A611A46126942F001021A6100BF4D
:100B60004FF0E022116901F001021AB101F4803264
:100B7000002AF5D04FF0E022126922F001024FF076
:100B8000E0231A6100229A610028CBD1704700004F
:100B9000E403002001460020114A12684A434FF046
:100BA000E0235A6100229A611A46126942F001025A
:100BB0001A6100BF4FF0E022106900F001021AB183
:100BC00000F48032002AF5D04FF0E022126922F0C2
:100BD00001024FF0E0231A6100229A617047000081
:100BE000E003002020F4805020F4407141F4807034
:100BF00020F00101481C20F4006070470021417280
:100C000041600121017201707047000006490968C6
:100C10000140814204D10449091D0860086002E0D6
:100C20000149091D08607047100401400146002079
:100C30000022044B1B6803EA01020AB1012000E014
:100C40000020704714040140014600204868234AF0
:100C500012688243214B1A601A1D126882431B1DC1
:100C60001A604A7A0AB30A782AB91A1F126802432C
:100C70001B1F1A6006E0194A121D12680243174B27
:100C80001B1D1A60154A083212688243134B083341
:100C90001A601A1D126882431B1D1A600A7A2AB94B
:100CA0001A1F126802431B1F1A6016E00A7A012AF3
:100CB00007D10A4A0C3212680243084B0C331A60FF
:100CC0000BE0064A083212680243044B08331A60EC
:100CD0001A1D126802431B1D1A6070470004014070
:100CE000012905D1054A12680243044B1A6004E049
:100CF000024A12688243014B1A60704700040140A7
:100D000030B50246002012E000210DE0131D03EB78
:100D100080035B5C074C084D2D686355064B1B68D0
:100D20005B1C054C2360491C0329EFDB401C042895
:100D3000EADB30BD88040020DC03002010B5044647
:100D4000402C00DA04E0322203A108A0FFF79AFA4F
:100D50000C4830F8140010BD2E2E5C7372635C6179
:100D600064733133316D30782E63000061646472D6
:100D7000657373203C204E554D5F5245474953548F
:100D8000455253000804002010B50220FFF7D6FF9B
:100D9000C0F301200149085C10BD0000E6220008F4
:100DA000416170470AB1016100E0416170474FF64F
:100DB000FF710160002181710171042141710121E4
:100DC000C171704710B500228B071C0F0F2303FA67
:100DD00004F28B1033B1012B13D0022B20D0032B44
:100DE0003CD12CE01F4B9B6893431E4CA3602346D1
:100DF0009B688C07240F00FA04F42343194CA3606A
:100E00002DE0184BDB689343164CE3602346DB6808
:100E10008C07240F00FA04F42343124CE3601EE015
:100E2000104B1B6993430F4C236123461B698C07AE
:100E3000240F00FA04F423430A4C23610FE0094B0A
:100E40005B699343074C636123465B698C07240FFE
:100E500000FA04F42343034C636100E000BF00BFC9
:100E600010BD000000000140F0B50A461588ABB285
:100E70009579032D01D100241AE0957965B955794A
:100E800005F00F045579182D01D1036110E0557953
:100E9000282D0DD143610BE0957905F008051679F1
:100EA00006F004063543D67906F0030645EA060443
:100EB000DDB2A5B1002110E001258D401D405DB1DE
:100EC00005688F000F26BE40B543056005688E009B
:100ED00004FA06F635430560491C0829ECD3FF2BBC
:100EE00015DD1B12002110E001258D401D405DB174
:100EF00045688F000F26BE40B543456045688E00AB
:100F000004FA06F635434560491C0829ECD3F0BDC8
:100F1000F0B50C46104F07EB1062C0F30741C0F369
:100F20000725C6B2C5F12007A7EB010C4FF0FF372C
:100F300007FA0CF3C5F120077F1AFB40CB408B402A
:100F400017689F4317602CB106FA01FC176847EA3F
:100F50000C071760F0BD0000000001400146C8B258
:100F600070470000FFF7C0FD01F0CCF800F0C2FFB1
:100F700000F038FF00F0AEFF00F0DEFF01F04EF8A9
:100F800000F038FF01F000F900F084FFFFF744FCA7
:100F9000012211026A48FFF705FF01225102684849
:100FA000FFF700FF012067490870C8E01DE06648B0
:100FB000007820B100F04CFA08B1FFF751FB63480C
:100FC000007848B9082262A16448FFF7BAF960B90D
:100FD00001206349087008E0062262A15F48FFF71C
:100FE000B0F910B901205E4908705D48007800280A
:100FF000DDD05E480078002837D1594800780028B5
:1010000033D05BA0FFF7CCFB0120604908700AE0F9
:101010004D48007838B100205C49087000F018FA9B
:1010200008B1FFF71DFB594800780028F0D10E22C7
:1010300057A14A48FFF785F90028B6D00120534947
:1010400008700AE04048007838B100204F49087025
:1010500000F0FEF908B1FFF703FB4C4800780028C8
:10106000F0D101204149087069E0642000F09CFE45
:1010700028B34B4800F03EF94948FFF741FE494884
:101080000068B0F5707F1ADB0020464908604FF415
:10109000707245494548FFF79FF945480078434934
:1010A0000A3981F8CA0342480078401C4049087058
:1010B0000846007808703D480A3800F02DFB2248A9
:1010C000007838B100203149087000F0C1F908B14A
:1010D000FFF7C6FA062223A12048FFF732F90028BD
:1010E0002DD0082233A11D48FFF72BF950B934A0A9
:1010F000FFF756FB00201A4908701C490870134975
:1011000008701CE0082231A11448FFF71AF958B9F9
:101110002BA0FFF745FB0020114908701349087008
:1011200001200A4908700AE025A0FFF739FB0020DA
:101130000B4908700D49087001200449087035E713
:101140000008014002000020EE03002004000020FF
:101150000D0A2B574643535400000000AC080020F2
:10116000030000200D0A4F4B0D0A00000000002074
:1011700041542B545254433D31302E302E302E32B8
:101180002C313233342C3233303000000100002057
:101190000D0A4552524F523A2D3733360D0A000090
:1011A000F4030020DC030020880400200F0000204E
:1011B000D90300200D0A2B57464453540000000069
:1011C00041542B545254414C4C0000000D0A2B54F6
:1011D000525854430000000010B50146084600284C
:1011E0000BDB00F01F0301229A40054B440943F832
:1011F0002420BFF34F8FBFF36F8F00BF10BD0000DF
:1012000080E100E02DE9F0470B4614464FF0000C5A
:1012100000BF2C4A1268C2F302211D4626460A4628
:10122000C2F10709B9F1040F02D94FF0040901E036
:10123000C2F10709C84602F10409B9F1070F02D249
:101240004FF0000901E0A2F103094F464FF00109F8
:1012500009FA08F9A9F1010909EA050909FA07F9E2
:101260004FF0010A0AFA07FAAAF1010A0AEA060A85
:1012700049EA0A09CC4601466246002904DB150703
:101280002E0E114D6E5407E015072F0E0D4D0C3527
:1012900001F00F06361FAF5500BF014600290DDBD8
:1012A00000BF00BF01F01F050122AA404D09AD009B
:1012B00005F1E025C5F8002100BF00BF00BFBDE873
:1012C000F08700000CED00E000E400E000BF00F05B
:1012D0000702064B19684FF6FF031940044B0B43F6
:1012E00043EA0221014B196000BF70470CED00E09A
:1012F0000000FA052DE9FC41054600200190009010
:10130000FFF742FD0646002210213048FFF74AFD54
:10131000002405E0002000F079FA0DF80400641CB8
:10132000B442F7DB9DF801109DF80000FFF7BFFA0B
:1013300028800027002406E001A9085D00F066FA75
:10134000291D0855641CB442F6DB002407E0002088
:1013500000F05CFA014605F108000155641CB44236
:10136000F5DB002407E0002000F050FA014605F10B
:101370000C000155641CB442F5DB002407E000209A
:1013800000F044FA014605F110000155641CB44216
:10139000F5DB002405E0002000F038FA0DF8040029
:1013A000641CB442F7DB9DF801109DF80000FFF7C4
:1013B0007EFA6880012210210448FFF7F3FC17B180
:1013C0000120BDE8FC810020FBE70000000801408F
:1013D0003EB50446402C00DA04E0752210A115A0A9
:1013E000FEF750FF0020029001904FF4204040EAA9
:1013F000C410009002AA01216846FFF72BFA0546A7
:101400002A4601A902A800F0C5F9002000F0D4F88E
:101410000E4921F81400084630F814003EBD0000C3
:101420002E2E5C7372635C6164733133316D30787E
:101430002E63000061646472657373203C204E5516
:101440004D5F52454749535445525300080400200C
:1014500010B50020384908705020FFF73BF90820EC
:10146000FFF738F90220FFF735F95820FFF732F976
:10147000C020FFF72FF90020FFF72CF90020FFF71D
:1014800029F90820FFF726F90020FFF723F92B4957
:1014900008700020FFF71EF9284948700020FFF768
:1014A00019F9264988700020FFF714F92349C870FC
:1014B0000020FFF70FF9214908710020FFF70AF912
:1014C0001E4948710020FFF705F91C49887100206A
:1014D000FFF700F91949C87108460078FF2801D1C3
:1014E000012000E0002015494978FF2901D10121A0
:1014F00000E00021084311498978FF2901D1012129
:1015000000E0002108430D49C978FF2901D10121DC
:1015100000E00021084309498979202905D00749BD
:101520008979832901D0012100E00021084308B115
:10153000002010BD0120FCE7EE0300204808002039
:1015400000201C4908804FF4A06048804FF4A2603E
:10155000888040F60E70C8804FF4E040088100207B
:1015600048814FF4C06088810020C8810882488289
:101570008882C8824FF40040088300204883888313
:10158000C88308844FF40040488400208884C884BD
:10159000088548854FF4004088850020C885088666
:1015A000488688864FF40040C88600200887A1F846
:1015B0007C0070470804002071B583B0BDF80C00B2
:1015C000B0F5204F00D005E04FF4B5722EA133A046
:1015D000FEF758FEBDF80C00B0F5C04F00D005E096
:1015E00040F26B1228A133A0FEF74CFEBDF80C00B0
:1015F00040F25551884200D005E04FF4B67222A166
:1016000032A0FEF73FFEBDF80C0040F25561884263
:1016100000D005E040F26D121BA132A0FEF732FEB1
:10162000BDF80C00112800D005E04FF4B77216A1E8
:1016300032A0FEF727FE00200290019002AA0121AD
:1016400003A8FFF707F90546002210213148FFF7EC
:10165000A9FB002406E002A9085D00F0D7F801A963
:101660000855641CAC42F6DB012210212948FFF723
:1016700099FB9DF805109DF80400FFF718F9064640
:10168000304604B070BD00002E2E5C7372635C6146
:1016900064733133316D30782E6300004F50434F07
:1016A00044455F5252454720213D206F70636F646F
:1016B000650000004F50434F44455F575245472057
:1016C000213D206F70636F64650000004F50434FF1
:1016D00044455F4C4F434B20213D206F70636F6446
:1016E000650000004F50434F44455F554E4C4F43FB
:1016F0004B20213D206F70636F6465004F50434F56
:1017000044455F524553455420213D206F70636F1F
:1017100064650000000801402DE9F041074640F2F1
:10172000CB34A046641C04F003051DB1C5F10400D0
:10173000204484B25020FEF7CDFF0820FEF7CAFFF8
:101740000220FEF7C7FF6020FEF7C4FF8020FEF7EF
:10175000C1FF0020FEF7BEFF200AFEF7BBFFE0B28C
:10176000FEF7B8FF1B20FEF7B5FF002603E0B85DCB
:10177000FEF7B0FF761C4645F9DB4DB1002603E0CD
:101780000020FEF7A7FF761CC5F10400B042F7DC8D
:10179000BDE8F0812DE9F04105460E4617460DB132
:1017A00006B104E0C3220CA112A0FEF76BFD0022DB
:1017B00010211548FFF7F6FA002404E0285D00F038
:1017C00025F83055641CBC42F8DB012210210E487C
:1017D000FFF7E8FABDE8F0812E2E5C7372635C615E
:1017E00064733133316D30785F66756E6374696F21
:1017F0006E2E630064617461547820262620646133
:1018000074615278000000000008014070B5044681
:1018100000BF02210A4800F030F80028F9D0214624
:10182000074800F028F800BF0121054800F025F81E
:101830000028F9D0024800F01AF8C5B2284670BD59
:10184000003001400021017041708170C170017150
:10185000417181710121C1717047026861F3861283
:1018600002607047426861F382024260704701463D
:10187000C86880B27047C160704702460020936814
:101880000B4003B900E001207047C26922F40062F6
:10189000C2610A7862B9026822F4004202600268FA
:1018A00022F480420260026822F48062026036E024
:1018B0000A78012A0ED1026822F40042026002680E
:1018C00022F480420260026822F4806202F58062A3
:1018D000026024E00A78022A0ED1026822F4004253
:1018E00002F500420260026822F48042026002684F
:1018F00022F48062026012E00A78032A0FD10268A3
:1019000022F4004202F500420260026822F48042A2
:1019100002F580420260026822F480620260CB79A4
:10192000026863F3492202604A78012A09D1CA7920
:10193000012A06D1026822F4807202F580720260E8
:1019400003E0026822F4807202604B78026863F35D
:10195000820202608A78072A0BDD426822F48072D4
:1019600002F5807242608A78036862F3C5030360FF
:1019700008E0426822F4807242608B78026863F368
:10198000C5020260CB78026863F3C71202600B796C
:10199000026863F3CB2202604B79026863F3410271
:1019A00002608B79026863F30002026070470000F6
:1019B0002DE9F0470026002400250027A046A14677
:1019C000FFF78AF88246BAF1000F06D0BAF1010F8C
:1019D00015D0BAF1020F46D115E02D48406DC0F385
:1019E000402040B12A48006BC0F3406018B129483C
:1019F0002949086002E029482749086037E027485C
:101A00002549086033E022484068C0F30047204879
:101A10004068C0F383441E484068C0F341750DB967
:101A20000F2C03D12801401C044400E0A41C27B95A
:101A30001B4860431849086014E015484068C0F32B
:101A4000404058B11248406DC0F30136B01C1349F4
:101A5000B1FBF0F060431049086003E00F486043B9
:101A60000D49086003E00D480B49086000BF00BF46
:101A700007484068C0F303180A4810F80890064861
:101A8000006820FA09F004490860BDE8F08700000A
:101A900000100240006CDC02F003002000127A000B
:101AA00000093D00EA220008042808D14FF0E02197
:101AB000096941F004014FF0E022116107E04FF0A5
:101AC000E021096921F004014FF0E0221161704723
:101AD000C1628262436923F001035B1C436170476A
:101AE0000B4633B1022B06D0042B06D0062B08D1AF
:101AF00005E0426306E0826304E0C26302E0026440
:101B000000E000BF00BF7047026861F30922026075
:101B10007047026861F3061202607047026861F361
:101B200000020260704710B50B4633B1022B09D09A
:101B3000042B0CD0062B14D10EE0846962F3C3048D
:101B400084610FE0846962F3CB2484610AE0C46994
:101B500062F3C304C46105E0C46962F3CB24C461C9
:101B600000E000BF00BF10BD2DE9F04100250026B8
:101B7000002701F108035C1C92F801C00CFA03FC79
:101B80001FFA8CF592F802C00CFA04FC1FFA8CF6CE
:101B9000D0F804C04FF0010808FA04F82CEA080C49
:101BA000C0F804C0D0F804C04CEA060CC0F804C069
:101BB000D0F804C04FF0010808FA03F82CEA080C2A
:101BC000C0F804C0D0F804C04CEA050CC0F804C04A
:101BD0000F4637B1022F0DD0042F14D0062F24D179
:101BE0001AE092F80080D0F818C068F3061CC0F81C
:101BF00018C01BE092F80080D0F818C068F30E3CC3
:101C0000C0F818C012E092F80080D0F81CC068F349
:101C1000061CC0F81CC009E092F80080D0F81CC077
:101C200068F30E3CC0F81CC000E000BF00BF4FF0DE
:101C3000010C0CEB41034FF0030C0CEB410492F848
:101C400003C00CFA03FC1FFA8CF592F804C00CFADE
:101C500004FC1FFA8CF64FF0010808FA04F8D0F8DB
:101C600020C02CEA080CC0F820C0D0F820C04CEAF4
:101C7000060CC0F820C04FF0010C0CFA03FCD0F8A1
:101C8000208028EA0C08C0F82080D0F820C04CEA58
:101C9000050CC0F820C04B004FF0020C0CEB4104C7
:101CA00092F805C04FEA41080CFA08FC1FFA8CF5BF
:101CB00092F806C04FF0020808EB41080CFA08FC45
:101CC0001FFA8CF64FF0010808FA04F8D0F820C08B
:101CD0002CEA080CC0F820C0D0F820C04CEA060C52
:101CE000C0F820C04FF0010808FA03F8D0F820C06F
:101CF0002CEA080CC0F820C0D0F820C04CEA050C33
:101D0000C0F820C0BDE8F08110B50B4633B1022BFE
:101D100009D0042B0CD0062B14D10EE0846962F399
:101D2000820484610FE0846962F38A2484610AE09A
:101D3000C46962F38204C46105E0C46962F38A2461
:101D4000C46100E000BF00BF10BD026861F3C712AC
:101D500002607047426861F3061242607047826811
:101D600061F3C7128260704710B5002204210B484E
:101D7000FFF718F80220FEF7D3FE012204210748DE
:101D8000FFF710F80520FEF705FFFFF7D9FB4FF42A
:101D9000A261022000F058FA10BD000000080140C6
:101DA0000146080A7047000070B5054642F6E0603B
:101DB00005FB00F400200A49087001210846FEF7DF
:101DC0008FFF00BF641E0648007808B9002CF9D1C7
:101DD0000020034908700CB1012070BD0020FCE711
:101DE000E803002010B501210148FFF791F810BD6C
:101DF0000203103000B585B003A8FEF7D8FF00201D
:101E00008DF812000120039004208DF8110003A921
:101E10001F48FFF729F800210846FEF7D3FF684660
:101E2000FEF7ECFE01208DF8090000208DF800007F
:101E30000120019000208DF808006846FEF704FF9D
:101E400003A8FEF7B4FF00208DF812004FF4806065
:101E5000039004208DF8110003A90D48FFF704F842
:101E60000A210020FEF7AEFF6846FEF7C7FE0120FC
:101E70008DF8090000208DF800004FF4806001907B
:101E800000208DF808006846FEF7DEFE05B000BDB4
:101E9000000801401CB56846FEF789FF4FF4417108
:101EA0000B48FEF77DFF02208DF8070000208DF81B
:101EB000040010208DF806004FF4417000900420BB
:101EC0008DF8050069460248FEF7CEFF1CBD0000F4
:101ED0000008014010B50320FFF7F8F90022114671
:101EE0000620FFF78FF9002211462820FFF78AF914
:101EF00010BD000010B501214FF4C010FEF756FDD3
:101F000001210B48FEF752FD01210948401CFEF754
:101F10004DFD012106480A30FEF748FD01214FF42E
:101F2000E010FEF743FD01210248FEF73FFD10BD22
:101F3000020018000E001C001FB502A8FEF737FFB4
:101F40006846FFF77FFC02208DF80F0000208DF817
:101F50000C0008208DF80E002020029004208DF83F
:101F60000D0002A92B48FEF77FFF02208DF80F001D
:101F700000208DF80C008DF80E0040200290042007
:101F80008DF80D0002A92348FEF76EFF02208DF8A0
:101F90000F0000208DF80C0008208DF80E00802026
:101FA000029004208DF80D0002A91A48FEF75CFF8C
:101FB00002208DF80F0000208DF80C0010208DF805
:101FC0000E00029004208DF80D0002A91148FEF7C2
:101FD0004BFF00208DF8000001208DF8010000204B
:101FE0008DF804008DF8030003208DF80200002016
:101FF0008DF8050001208DF8060069460648FFF7B8
:1020000044FC01210448FFF72DFC01210248FFF7A1
:1020100024FC1FBD00080140003001401FB502A88C
:10202000FEF7C5FE6846FFF70DFC02208DF80F0095
:1020300000208DF80C0008208DF80E008002029020
:1020400004208DF80D0002A92C48FEF70DFF022098
:102050008DF80F0000208DF80C008DF80E004FF465
:102060008040029004208DF80D0002A92348FEF75D
:10207000FBFE02208DF80F0000208DF80C000820D8
:102080008DF80E000003029004208DF80D0002A9C7
:102090001A48FEF7E9FE02208DF80F0000208DF8A7
:1020A0000C0010208DF80E000002029004208DF824
:1020B0000D0002A91148FEF7D7FE00208DF80000A0
:1020C00001208DF8010000208DF804008DF8030038
:1020D00003208DF8020000208DF805008DF8060021
:1020E00069460748FFF7D1FB01210548FFF7BAFB16
:1020F00001210348FFF7B1FB1FBD0000000C0140A8
:102100000038004010B5FEF7B1FC01210420FEF7B5
:1021100005FC00BF1B48FEF731FC0128FAD1012164
:102120000020FEF7FBFB00BF0120FEF727FC012883
:10213000FAD101223B210020FEF75AFC01210220A6
:10214000FEF7ECFB00BF1920FEF718FC0128FAD1BE
:102150000020FEF7B1FB0420FEF7C2FB0420FEF7CF
:10216000B5FB0120FEF7C6FB0220FEF7ABFC00BF6B
:10217000FEF7B2FC0228FBD10020FEF7BBFBFFF705
:1021800017FC10BD010024001FB502A8FEF70FFECA
:102190000220029008208DF80E0000208DF80C001F
:1021A00004208DF80D0002208DF80F0002A92548AB
:1021B000FEF75AFE00221D218807FFF789FC002147
:1021C0004FF08040FFF7A5FC00214FF08040FFF763
:1021D0009BFC00214FF08040FFF7B7FD00214FF03E
:1021E0008040FFF7BCFD00214FF08040FFF7B2FDBB
:1021F00006208DF8000001208DF8050000208DF8E4
:1022000006008DF803008DF804008DF801008DF8AC
:1022100002006A4602214807FFF7A6FC0E220221AF
:102220004807FFF75DFC002202214807FFF77BFC0F
:10223000002202214807FFF767FD01218807FFF709
:102240006DFC1FBD0008014070B586B004460D4608
:10225000402C00DA04E09E2214A119A0FEF712F827
:10226000022C03D12846FEF7BDFC05460020049051
:102270000590029003904FF4C04040EAC410ADF8BE
:102280000400ADF8065004AA022101A8FEF7E2FA04
:102290000646324602A904A8FFF77CFA0E4820F849
:1022A00014502046FFF794F806B070BD2E2E5C73D4
:1022B00072635C6164733133316D30782E6300007A
:1022C00061646472657373203C204E554D5F5245C6
:1022D0004749535445525300080400204FF04070C2
:1022E000E1EE100A70470203040400000000000041
:1022F0000000010203040607080900001C2300086F
:1023000000000020F4030000C0010008342300088E
:10231000F4030020E40B0000FC010008610BFF53F4
:10232000313936312C302C302C01FF01FF01E914FA
:04233000127A00001D
:040000050800018569
:00000001FF
